:100000000C94BB010C94E3010C94E3010C94E30108
:100010000C94E3010C94E3010C94E3010C94E301D0
:100020000C94E3010C94E3010C94E3010C94E301C0
:100030000C94E3010C94E3010C94E3010C94E301B0
:100040000C94A1210C94E3010C9499060C94730672
:100050000C94E3010C94E3010C94E3010C94E30190
:100060000C94E3010C94E30100407A10F35A00A0D1
:10007000724E18090010A5D4E80000E87648170071
:1000800000E40B54020000CA9A3B000000E1F505B1
:10009000000080969800000040420F000000A086FB
:1000A00001000000102700000000E803000000002D
:1000B0006400000000000A000000000001000000D1
:1000C00000002C76D888DC674F0823DFC1DFAE59EB
:1000D000E1B1B796E5E3E453C63AE651997696E87E
:1000E000E6C28426EB898C9B62ED407C6FFCEFBC02
:1000F0009C9F40F2BAA56FA5F490055A2AF75C932D
:100100006B6CF9676DC11BFCE0E40D47FEF520E662
:10011000B500D0ED902E0300943577050080841E45
:10012000080000204E0A000000C80C333333330FA0
:10013000986E12831141EF8D2114893BE65516CF3D
:10014000FEE6DB18D1844B381BF77C1D901DA4BB49
:10015000E424203284725E228100C9F124ECA1E5FE
:100160003D272D2D2D2D2D2D2D2D2D2D2D2D2D2DB5
:100170002D2D2D2D2D2D2D2D2D2D2D2D2D2D2D2DAF
:100180002D2D2D2D2D2D0025005265736F6C75744E
:10019000696F6E3A20200025004D696E2056616C13
:1001A00075653A2020200025004D61782056616C4D
:1001B00075653A20202000556E69717565204944A7
:1001C0003A20202000447269766572205665723AA2
:1001D00020200053656E736F7220547970653A2049
:1001E0000048756D69646974792053656E736F7228
:1001F000002D2D2D2D2D2D2D2D2D2D2D2D2D2D2D5C
:100200002D2D2D2D2D2D2D2D2D2D2D2D2D2D2D2D1E
:100210002D2D2D2D2D00C2B043005265736F6C75CE
:1002200074696F6E3A202000C2B043004D696E20A1
:1002300056616C75653A20202000C2B043004D61C4
:10024000782056616C75653A20202000556E6971E2
:1002500075652049443A2020200044726976657211
:10026000205665723A20200053656E736F722054D9
:100270007970653A200054656D70657261747572AD
:10028000652053656E736F72002D2D2D2D2D2D2D34
:100290002D2D2D2D2D2D2D2D2D2D2D2D2D2D2D2D8E
:1002A0002D2D2D2D2D2D2D2D2D2D2D2D2D00444879
:1002B00054787820556E69666965642053656E735D
:1002C0006F72204578616D706C65002500556D6911
:1002D000646164653A20004572726F72206C656ECD
:1002E000646F20756D69646164652100C2B043006C
:1002F00054656D70657261747572613A2000457263
:10030000726F72206C656E646F2074656D706572BB
:100310006174757261210000000000240027002A2A
:100320000000000000250028002B0000000008004D
:1003300002010000030407000000000000000000AC
:10034000000000230026002900040404040404041F
:100350000402020202020203030303030301020474
:100360000810204080010204081020010204081037
:1003700020001D2A472B11241FBECFEFD8E0DEBF7F
:10038000CDBF14E0A0E0B1E0E0EDF6E602C00590DC
:100390000D92A030B107D9F726E0A0E0B4E001C08B
:1003A0001D92A037B207E1F711E0CAEBD1E004C01B
:1003B0002197FE010E940C30C93BD107C9F70E946A
:1003C000EB210C945B330C940000CF92DF92EF9200
:1003D000FF920F931F93CF93DF936C017A018B01F0
:1003E000C0E0D0E0CE15DF0581F0D8016D918D0120
:1003F000D601ED91FC910190F081E02DC6010995A7
:10040000892B11F02196EECF7E01C701DF91CF91AC
:100410001F910F91FF90EF90DF90CF900895FC0116
:10042000538D448D252F30E0842F90E0821B930B59
:10043000541710F0CF96089501970895FC01918DFF
:10044000828D981761F0828DDF01A80FB11D5D9636
:100450008C91928D9F5F9F73928F90E008958FEFA4
:100460009FEF0895FC01918D828D981731F0828D58
:10047000E80FF11D858D90E008958FEF9FEF0895AF
:10048000FC01918D228D892F90E0805C9F4F821B13
:1004900091098F739927089584EA94E00E9440029D
:1004A00021E0892B09F420E0822F0895FC01848D3E
:1004B000DF01A80FB11DA35ABF4F2C91848D90E08E
:1004C00001968F739927848FA689B7892C93A08969
:1004D000B1898C91837080648C93938D848D9813F3
:1004E00006C00288F389E02D80818F7D8083089586
:1004F000EF92FF920F931F93CF93DF93EC0181E074
:10050000888F9B8D8C8D981305C0E889F98980812F
:1005100085FD26C0F62E0B8D10E00F5F1F4F0F7369
:100520001127E02E8C8DE8120CC00FB607FCFACF15
:10053000E889F989808185FFF5CFCE010E945602B6
:10054000F1CF8B8DFE01E80FF11DE35AFF4FF082D2
:100550009FB7F8940B8FEA89FB89808180620AC07B
:100560009FB7F894EE89FF896083E889F9898081D3
:100570008370806480839FBF81E090E0DF91CF91A2
:100580001F910F91FF90EF900895CF93DF93EC01AF
:10059000888D8823C9F0EA89FB89808185FD05C0A3
:1005A000A889B9898C9186FD0FC00FB607FCF5CFDD
:1005B000808185FFF2CFA889B9898C9185FFEDCF25
:1005C000CE010E945602E7CFDF91CF91089580E0DF
:1005D00090E0892B29F00E944C0281110C940000BC
:1005E00008950E9411330F931F93CF93DF938C01D3
:1005F000EB0188E2DB011D928A95E9F7F80183811E
:1006000094810E94372081E090E0A0E0B0E08C87E8
:100610009D87AE87BF87F80185819681A781B085C8
:10062000888B998BAA8BBB8B8CE090E0A0E0B0E02C
:100630008C8B9D8BAE8BBF8BBE01838194810E947E
:100640002020D8011396ED91FC91149783898C306A
:1006500069F038F48B30A1F580E090E0A0EAB2E4D4
:1006600009C08531C1F08631B1F02AC080E090E048
:10067000AEEBB2E4888F998FAA8FBB8F80E090E0B9
:10068000A0EAB1E48C8F9D8FAE8FBF8F80E090E0A9
:10069000A0EAB0E410C080E090E0A8ECB2E4888F5B
:1006A000998FAA8FBB8F1C8E1D8E1E8E1F8E8DEC78
:1006B0009CECACECBDE388A399A3AAA3BBA30CC09C
:1006C000188E198E1A8E1B8E1C8E1D8E1E8E1F8EDE
:1006D00018A219A21AA21BA2DF91CF911F910F910C
:1006E00008950F931F93CF93DF938C01EB0188E262
:1006F000DB011D928A95E9F7F801838194810E94BC
:10070000372081E090E0A0E0B0E08C879D87AE8745
:10071000BF87F80185819681A781B085888B998BE9
:10072000AA8BBB8B8DE090E0A0E0B0E08C8B9D8B22
:10073000AE8BBF8BBE01838194810E942020D801A3
:100740001396ED91FC91149783898C30F1F0A0F40D
:100750008B3009F048C080E090E0A8E4B2E4888FD4
:10076000998FAA8FBB8F1C8E1D8E1E8E1F8E80E0D0
:1007700090E0A0E0B0E432C08531E1F0863199F537
:1007800080E090E0AAEFB2E419C080E090E0A0E73A
:10079000B2E4888F998FAA8FBB8F80E090E0A0EAA7
:1007A000B1EC8C8F9D8FAE8FBF8F80E090E0A0E08A
:1007B000BFE314C080E090E0A0EAB2E4888F998F94
:1007C000AA8FBB8F80E090E0A0E2B2EC8C8F9D8F6F
:1007D000AE8FBF8F8DEC9CECACECBDE388A399A3EE
:1007E000AAA3BBA30CC0188E198E1A8E1B8E1C8E4A
:1007F0001D8E1E8E1F8E18A219A21AA21BA2DF9197
:10080000CF911F910F910895CF92DF92EF92FF92B7
:100810000F931F93CF93DF938C01EB0184E2FB01D5
:1008200011928A95E9F784E290E0A0E0B0E0888335
:100830009983AA83BB83F80185819681A781B085BE
:100840008C839D83AE83BF838CE090E0A0E0B0E01A
:1008500088879987AA87BB870E940314688B798B46
:100860008A8B9B8BF80103811481C8010E940F14AD
:100870008823B9F1F80186818B3098F18D30A0F092
:100880008551823070F5F801608171817627672784
:10089000762780E090E00E944C2E2DEC3CEC4CEC56
:1008A0005DE30E94AD2E21C0F801618170E080E01F
:1008B00090E00E944E2E2DEC3CEC4CEC5DE30E944F
:1008C000AD2E6B017C01F801608170E080E090E06A
:1008D0000E944E2E9B01AC01C701B6010E9413304D
:1008E00004C060E070E080EC9FE76C8B7D8B8E8BAA
:1008F0009F8B81E0DF91CF911F910F91FF90EF903F
:10090000DF90CF9008958F929F92AF92BF92EF9217
:10091000FF921F93CF93DF937C01EB0184E2FB01F5
:1009200011928A95E9F784E290E0A0E0B0E0888334
:100930009983AA83BB83F70185819681A781B085BE
:100940008C839D83AE83BF838DE090E0A0E0B0E018
:1009500088879987AA87BB870E940314688B798B45
:100960008A8B9B8BF701E380F480C7010E940F14F0
:10097000882309F46BC0F70186818C3009F445C0E7
:1009800018F48B30C9F062C08551823008F05EC027
:10099000F7011281612F6F7770E0762F66278381D0
:1009A000682B80E090E00E944C2E2DEC3CEC4CEC4F
:1009B0005DE30E94AD2E46C0F701628170E080E0E9
:1009C00090E00E944C2E4B015C01F701138117FF50
:1009D0000AC09B01AC0160E070E080E89FEB0E94E0
:1009E00012304B015C01612F6F7070E080E090E08D
:1009F0000E944E2E2DEC3CEC4CEC5DE30E94AD2EA3
:100A0000A50194010E94133025C0F7011281638172
:100A10006F7070E080E090E00E944E2E2DEC3CEC78
:100A20004CEC5DE30E94AD2E4B015C01612F70E048
:100A300080E090E00E944C2E9B01AC01C501B40106
:100A40000E94133017FF06C0905804C060E070E0A9
:100A500080EC9FE76C8B7D8B8E8B9F8B81E0DF9191
:100A6000CF911F91FF90EF90BF90AF909F908F908C
:100A700008950F931F93CF93DF93EC0188819981A1
:100A8000009729F02A813B812617370788F48B01CC
:100A90006F5F7F4F0E944B32009761F0998388838C
:100AA0001B830A832C813D81232B11F4FC011082CE
:100AB00081E001C080E0DF91CF911F910F910895F7
:100AC000EF92FF920F931F93CF93DF93EC017B0183
:100AD0008A01BA010E9439052881398181110DC02E
:100AE0002115310519F0C9010E94C23119821882FD
:100AF0001D821C821B821A8206C01D830C83B701D3
:100B0000C9010E944533CE01DF91CF911F910F9112
:100B1000FF90EF900895FC01808191810C94C23187
:100B2000FB01DC0111961C921E9213961C921E92E0
:100B3000129715961C921E9214978617970749F0E4
:100B4000608171816115710521F0448155810C949A
:100B500060050895FC0111821082138212821582B1
:100B600014826115710551F0FB0101900020E9F735
:100B70003197AF01461B570B0C9460050895611522
:100B8000710579F0FB0101900020E9F73197AF0181
:100B9000461B570BDC01ED91FC910280F381E02DA7
:100BA000099480E090E008958F929F92AF92BF9257
:100BB000EF92FF920F931F93CF93DF93CDB7DEB7E2
:100BC000A1970FB6F894DEBF0FBECDBF7C01FA012E
:100BD000CB0119A2223008F42AE08E010F5D1F4FCD
:100BE000822E912CA12CB12CBF01A50194010E9451
:100BF000D42FF901CA01015011096A3014F4605D63
:100C000001C0695CD8016C93232B242B252B61F741
:100C1000B801C7010E94BF05A1960FB6F894DEBFC8
:100C20000FBECDBFDF91CF911F910F91FF90EF903D
:100C3000BF90AF909F908F9008958F929F92AF92A8
:100C4000BF92CF92DF92EF92FF920F931F93CF93B9
:100C5000DF937C01EB016C0182E0C80ED11C4701DF
:100C6000E5E08E0E911C00E010E0F60141916F016D
:100C700050E060E070E02AE0CE010E94D4055C0103
:100C8000E881F9810190F081E02D6EE2CE010995B5
:100C90008A0D9B1D080F191F8C149D0431F7F70155
:100CA000458150E060E070E02AE0CE010E94D4056A
:100CB000800F911FDF91CF911F910F91FF90EF90C7
:100CC000DF90CF90BF90AF909F908F900895DC0100
:100CD0008FE092E08D939D9384E0FB0101900D9253
:100CE0008A95E1F708951F920F920FB60F92112483
:100CF0002F933F934F935F936F937F938F939F9324
:100D0000AF93BF93EF93FF9384EA94E00E9456025F
:100D1000FF91EF91BF91AF919F918F917F916F91D3
:100D20005F914F913F912F910F900FBE0F901F90A9
:100D300018951F920F920FB60F9211242F938F9335
:100D40009F93EF93FF93E091B404F091B5048081F9
:100D5000E091BA04F091BB0482FD12C090818091B1
:100D6000BD048F5F8F732091BE04821751F0E09114
:100D7000BD04F0E0EC55FB4F958F8093BD0401C09E
:100D80008081FF91EF919F918F912F910F900FBED6
:100D90000F901F901895FC0120812EBD9B012150C2
:100DA000310941F051810DB407FEFDCF4EB55EBD56
:100DB0004193F5CF61507109FC01E60FF71F0DB4A7
:100DC00007FEFDCF8EB580830895CF93C82F462FA1
:100DD00061E070E00E94310D61E070E08C2F0E94B4
:100DE0004F0D8111F9CFCF910895AF92BF92CF925D
:100DF000DF92EF92FF920F931F93CF93DF9300D078
:100E000000D0CDB7DEB78C016B017A018091A204CE
:100E10008333F1F45B016801C40ED51E0C151D056A
:100E200009F460C00E94A0098FE00E94BE09812FD2
:100E30000E94BE09802F0E94BE090F5F1F4F80E0F5
:100E40000E94BE09F50181935F010E949609E6CFD9
:100E50008433F1F40E94A00919830A838F2D8F77C0
:100E60008B83EC8264E070E0CE0101960E94CB0699
:100E7000A70160E070E0C6010E943E33E114F10476
:100E800021F0B701C6010E94CB060E9496092AC034
:100E90000E94A0090F3F110509F020F419820A836E
:100EA0001B821DC017FD0BC019820A8333E0169503
:100EB00007953A95E1F7007E08600B8310C0C801E2
:100EC00026E0969587952A95E1F719830A83807E17
:100ED0000115104C10F4806101C088618B8363E0C0
:100EE00070E0C2CFC7010F900F900F900F90DF916D
:100EF000CF911F910F91FF90EF90DF90CF90BF9017
:100F0000AF9008951F93CF93DF9300D01F92CDB77A
:100F1000DEB760E372E080E090E00E94C9131FB783
:100F2000F89480917504811127C0E3E5F3E0849182
:100F3000E7E6F3E09491E82FF0E0EE0FFF1FE95EA3
:100F4000FC4FA591B491EC91E92321F461E08AE092
:100F50000E941B1361E08AE00E9468138CB58061D7
:100F60008CBD8CB580648CBD61E08DE00E946813FF
:100F700061E08BE00E946813809175048F5F80931D
:100F800075041FBFE3E5F3E0E491F0E0EE0FFF1F0F
:100F9000EF5DFC4F8591949190937304809372045C
:100FA000E7E6F3E0E491E093710461E08AE00E94F7
:100FB00068130E949609CE0101960E9483178981C9
:100FC0009A810E94D91B84E38093A2040E94950A0F
:100FD000882309F444C088E00E94820A0E94AB0979
:100FE0008830E9F580E10E94820A0E94AB098031D5
:100FF000B1F580E00E94820A0E94AB0981112FC0E6
:1010000041E050E0BE016F5F7F4F8FE190E00E94B2
:10101000F5068981833019F580E48093740410E02B
:1010200042E06EE170E0812F0E94310D42E06FE1FD
:1010300070E0812F0E94310D1F5F143089F740E06E
:101040006EE170E0812F0E94310D40E06FE170E0B1
:10105000812F0E94310D1F5F183089F72BC087E365
:101060008093A2040E94950A882351F188E00E948F
:10107000820A0E94AB09883019F580E10E94820A39
:101080000E94AB09182F8031D9F480E00E94820AB7
:101090000E94AB09811114C041E050E0BE016F5FB6
:1010A0007F4F89E390E00E94F5068981843041F406
:1010B000109374040E94D81B81E08093A3043AC06B
:1010C00083E38093A2040E94950A882371F180E152
:1010D0000E94820A0E94AB09803139F582E10E94A8
:1010E000820A0E94AB09823101F580E00E94820AE7
:1010F0000E94AB09811119C084E08093740415E546
:101100001B8341E050E0BE016D5F7F4F8BE190E0BB
:101110000E94C509198341E050E0BE016F5F7F4F17
:101120008AE190E00E94C509C5CF1092A2040E94F6
:10113000D81B80E00F900F900F90DF91CF911F91FF
:1011400008952091A20490E0233311F40C9601C07D
:101150004896982F990F990F990F80E00895089558
:10116000CF93DF931F92CDB7DEB76983DC01ED919A
:10117000FC910280F381E02D41E050E0BE016F5F01
:101180007F4F09950F90DF91CF910895FC01818DDC
:10119000928D0895FF920F931F93CF93DF9300D00A
:1011A000CDB7DEB7F82E22E030E0AE014F5F5F4FE3
:1011B00066E270E00E94BF1B09811A811027012797
:1011C000102722E030E0AE014F5F5F4F66E270E033
:1011D0008F2D0E94BF1B89819A8198278927982784
:1011E0000817190711F08C01ECCFC8010F900F9070
:1011F000DF91CF911F910F91FF9008950F931F934F
:10120000CF93DF9300D0CDB7DEB7FC012485243027
:10121000E0F48C01CE0101960E94831789819A81A6
:101220000E94D91B22E030E0AE014F5F5F4F60E1CA
:1012300070E0F80184850E94BF1B09811A81102784
:10124000012710270E94D81B02C000E010E0C8014F
:101250000F900F90DF91CF911F910F910895AF9252
:10126000BF92CF92DF92EF92FF920F931F93CF9393
:10127000DF93CDB7DEB7AF970FB6F894DEBF0FBEE2
:10128000CDBF8C015B016A01CE0101960E941C1248
:101290008FE0E82E82E0F82EFBA6EAA61CA61DA68B
:1012A0001EA61FA68091490590914A05A0914B0565
:1012B000B0914C058EA39FA3A8A7B9A78B839C834D
:1012C000AD83BE8318861F82AE01465D5F4FB501B8
:1012D000CE0101960E94131581309105B1F4D80119
:1012E000ED91FC910488F589E02DFDA2ECA28CA57E
:1012F0009DA5AEA5BFA58EA39FA3A8A7B9A7A6012C
:10130000BE016C5D7F4FC8010995AF960FB6F8948A
:10131000DEBF0FBECDBFDF91CF911F910F91FF9028
:10132000EF90DF90CF90BF90AF900895E09172045E
:10133000F0917304908180917104892B80830895CA
:10134000E0917204F0917304908180917104809512
:10135000892380830895CF93DF931F92CDB7DEB7A3
:1013600041E050E0BE016F5F7F4F80E090E00E945F
:10137000F50689810F90DF91CF9108958EBD000011
:101380000DB407FEFDCF8EB50895AF92BF92CF92F8
:10139000DF92EF92FF920F931F93CF93DF93CDB71E
:1013A000DEB728970FB6F894DEBF0FBECDBF8C0115
:1013B0007B016A018091A2048333E1F45801A40EF9
:1013C000B51E0A151B0509F48BC00E94A00980EF09
:1013D0000E94BE09812F0E94BE09802F0E94BE0973
:1013E0000F5F1F4FF70181917F010E94BE090E948C
:1013F0009609E7CF843321F50E94A00919830A8357
:101400008D2D80688B83CC8264E070E0CE010196E4
:101410000E94CB0687010C0D1D1DE016F10669F038
:10142000F70181917F010E94BE09F7CFB6016D5F80
:101430007F4FCE0101960E94CB060E94960950C0B4
:101440000E94A0090F3F110509F020F419820A83B8
:1014500084E01CC017FD0BC019820A8333E0169587
:1014600007953A95E1F7007E0C600B8310C0C80128
:1014700026E0969587952A95E1F719830A83807E61
:101480000115104C10F4846101C08C618B8326E03F
:10149000C216D10498F420E0822F90E08C159D05AF
:1014A00028F6E4E0F0E0EC0FFD1FE80FF91FD7018C
:1014B000A80FB91F8C9180832F5FEECF63E070E09F
:1014C000CE0101960E94CB0687010C0D1D1DF70170
:1014D00081917F010E94BE09E016F106C1F7ADCFF0
:1014E000C60128960FB6F894DEBF0FBECDBFDF91C0
:1014F000CF911F910F91FF90EF90DF90CF90BF9011
:10150000AF900895CF93DF931F92CDB7DEB7898355
:1015100041E050E0BE016F5F7F4F80E090E00E94AD
:10152000C5090F90DF91CF910895CF93DF9380E8A5
:101530000E94820AC4E1D0E00E94AB09882351F0E6
:1015400061E070E080E090E00E94C9132197A1F76C
:1015500080E001C081E0DF91CF910895EF92FF928A
:101560001F93CF93DF9300D0CDB7DEB7182F22E0C3
:1015700030E0AE014F5F5F4F60E270E00E94BF1B42
:10158000E980FA80FE24EF24FE2422E030E0AE0160
:101590004F5F5F4F60E270E0812F0E94BF1B898127
:1015A0009A81982789279827E816F90611F07C0177
:1015B000ECCF87E0189FF0011124E258FB4FF58231
:1015C000E482C7010F900F90DF91CF911F91FF90A0
:1015D000EF9008951F93CF93DF9300D0CDB7DEB780
:1015E000182FCE0101960E94831789819A810E944B
:1015F000D91B812F0E94A10827E0129FF00111241E
:10160000E258FB4F22813381377041E050E0BE0148
:101610006F5F7F4F820F931F0E94F5060E94D81BB9
:1016200089810F900F90DF91CF911F910895FC0158
:10163000808D843040F4218D328D232B21F00E9447
:10164000EA0A90E008958FEF9FEF0895EF92FF92DE
:101650000F931F93CF93DF9300D0CDB7DEB7482F02
:1016600087E0489F90011124F901E258FB4F7F0168
:10167000808191810097B9F4142FCE0101960E94C8
:10168000831789819A810E94D91B812F0E94CA08E1
:101690008C010E94D81BF70186819801281B310913
:1016A000C901318320830F900F90DF91CF911F915B
:1016B0000F91FF90EF9008951F93CF93DF9300D089
:1016C000CDB7DEB7182FCE0101960E94831789810E
:1016D0009A810E94D91B68E070E0812F0E94E50684
:1016E0000E94D81B0F900F90DF91CF911F9108950A
:1016F0001F93CF93DF9300D0CDB7DEB7182FCE0165
:1017000001960E94831789819A810E94D91B60E10A
:1017100070E0812F0E94E5060E94D81B0F900F9069
:10172000DF91CF911F910895CF92DF92EF92FF92B8
:101730000F931F93CF93DF9300D000D000D0CDB78D
:10174000DEB78C016B017A01FC01808D843010F4CE
:101750000E94780B8FE092E09A838983F601828160
:101760009381A481B5818B839C83AD83BE83B701B4
:10177000CE0101960E943C12F801808F843030F433
:10178000F586E486128E118E81E001C080E02696F7
:101790000FB6F894DEBF0FBECDBFDF91CF911F9182
:1017A0000F91FF90EF90DF90CF900895CF93DF934C
:1017B000FC01808D843028F4EF010E94780B84E0D6
:1017C000888FDF91CF910895DA0190917404E92F09
:1017D000F0E0FE2FEE27E60FF71F90E0982F882706
:1017E000A901BD018E0F9F1F0C94C5097F928F9296
:1017F0009F92AF92BF92CF92DF92EF92FF920F93A0
:101800001F93CF93DF9300D0CDB7DEB7782E8B0137
:101810004A01590122E030E0AE014F5F5F4F64E2C0
:1018200070E00E94BF1BE980FA80FE24EF24FE24B2
:10183000E00EF11E970137704091A204072D10E0D1
:10184000C801433311F4089601C04096982F8827A9
:10185000990F990F990F820F931F473319F4A50120
:10186000B40120C0A9014A0D5B1D41305840B8F3B6
:1018700060E078E06B01C21AD30AA601B4010E94AD
:10188000C509A5014C195D09B4016C0D7D1D809140
:10189000A204833339F5085F1F4F902F990F990FDA
:1018A000990F80E00E94C509EA0CFB1CF982EA82CC
:1018B00022E030E0AE014F5F5F4F64E270E0872DC1
:1018C0000E94E40B0F900F90DF91CF911F910F9129
:1018D000FF90EF90DF90CF90BF90AF909F908F9050
:1018E0007F900895005F1F4FD8CF7F928F929F9275
:1018F000AF92BF92CF92DF92EF92FF920F931F931E
:10190000CF93DF9300D0CDB7DEB77C014B01742EAF
:10191000C52EFC01A688B788D08CCE0101960E9406
:10192000831789819A810E94D91B8D2D0E94AE0A4E
:10193000072D1C2D8017910708F48C019801A40134
:10194000B5018D2D0E94F60B0E94D81BF7018689E8
:101950009789800F911F978B868BC8010F900F90EE
:10196000DF91CF911F910F91FF90EF90DF90CF907B
:10197000BF90AF909F908F907F900895CF93DF930B
:1019800000D0CDB7DEB779836A8322E030E0AE01C4
:101990004F5F5F4F60E170E00E94E40B0F900F908B
:1019A000DF91CF910895CF93DF9300D0CDB7DEB70D
:1019B00079836A8322E030E0AE014F5F5F4F64E0DD
:1019C00070E00E94E40B0F900F90DF91CF9108958B
:1019D000DF92EF92FF920F931F93CF93DF9300D08C
:1019E000CDB7DEB7FB01DC0157961C921E925697CD
:1019F0002281211109C02381211106C024812111D6
:101A000003C02581222309F141155105F1F07A0126
:101A10008F01FC01D08CCE0101960E948317898131
:101A20009A810E94D91BA8014E5F5F4F24E030E0ED
:101A30006CE070E08D2D0E94E40BB7018D2D0E94AB
:101A4000BE0C0E94D81B81E001C080E090E00F90A6
:101A50000F90DF91CF911F910F91FF90EF90DF904A
:101A60000895CF93DF931F92CDB7DEB790917404A2
:101A7000292F30E0322F2227260F371F90E0982F92
:101A80008827498341E050E0BE016F5F7F4F820F9E
:101A9000931F0E94C5090F90DF91CF910895CF93B6
:101AA000DF931F92CDB7DEB790917404292F30E0F9
:101AB000322F2227260F371F90E0982F882741E0EA
:101AC00050E0BE016F5F7F4F820F931F0E94F506AB
:101AD00089810F90DF91CF910895AF92BF92CF92FD
:101AE000DF92EF92FF920F931F93CF93DF9300D07B
:101AF00000D000D0CDB7DEB7082F6B01CE01019624
:101B00000E94831789819A810E94D91B9E012F5FB1
:101B10003F4F7901590110E063E070E0812F0E948E
:101B20004F0DF50181935F018823D1F01F5F1430C1
:101B300099F710E0F70181917F018D3161F08831D3
:101B400051F08A51823038F01F5F143099F70E94AB
:101B5000D81B84E05CC060E170E0812F0E94E50644
:101B6000E12EF12C83EE93E00197F1F7402F60E036
:101B700070E0812F0E94310D4FEF62E070E0812F05
:101B80000E94310DC114D10411F0B60113C080912F
:101B900006019091070101968115F0EC9F0710F462
:101BA00080E090EC9093070180930601609106011C
:101BB00070910701812F0E94D30C61E070E0812FAA
:101BC0000E94E50627E02E9DC0012F9D900D112457
:101BD0009C0122583B4F7901F9011182108222E0C9
:101BE00030E0AE014B5F5F4F68E270E0812F0E94F2
:101BF000BF1B8D819E81982789279827F7019383A2
:101C000082831682158214820E94D81B812F269609
:101C10000FB6F894DEBF0FBECDBFDF91CF911F91FD
:101C20000F91FF90EF90DF90CF90BF90AF9008950D
:101C30000F931F93CF93DF93EC018B01888D84303A
:101C400010F40E94780B8091A204882329F0B80137
:101C500082E00E946D0D01C084E0888F843030F4F2
:101C60001D870C871A8E198E81E001C080E0DF91FC
:101C7000CF911F910F910895FF920F931F93CF93D0
:101C8000DF9300D0CDB7DEB7F82ECE0101960E94CB
:101C9000831789819A810E94D91B8F2D0E94AE0AD9
:101CA0008C0163E070E08F2D0E944F0DF82E0E9492
:101CB000D81B87E1F81631F08CE1F81619F080E0B6
:101CC00090E001C0C8010F900F90DF91CF911F915C
:101CD0000F91FF9008954F925F927F928F929F9203
:101CE000AF92BF92CF92DF92EF92FF920F931F932A
:101CF000CF93DF9300D0CDB7DEB7782E6B014A01CA
:101D0000A82EB12C27E0829FC0011124AC014258BB
:101D10005B4F7A01FA0100811181CE0101960E9488
:101D2000831789819A810E94D91B0815190554F4DB
:101D3000872D0E94CA08F70126818C01021B110918
:101D40001183008301151105A9F463E070E0872D6C
:101D50000E944F0D843109F480C0882309F47DC0AE
:101D600001E010E08C3111F400E010E011950195D4
:101D7000110973C0801691060CF4840187E08A9DD6
:101D8000F0018B9DF00D1124E258FB4FE280F380AF
:101D9000C114D10459F12701F7E05F22872D0E9479
:101DA000A108840D951D2091A204273319F4A801E0
:101DB000B6011AC09801240D351D21303840B8F302
:101DC00020E038E0490184189508A401B6010E947A
:101DD000F5062601480C591C6801C818D908872D3A
:101DE0000E94A108A601B2010E94F506E00EF11EB4
:101DF00087E08A9DF0018B9DF00D1124E258FB4F86
:101E0000F382E28280819181801B910B9183808398
:101E10002681A801420F511D4A3F510510F4892B1C
:101E2000D9F487E08A9DF0018B9DF00D1124E258D2
:101E3000FB4F1682F982EA8222E030E0AE014F5F6A
:101E40005F4F68E270E0872D0E94E40B60E470E071
:101E5000872D0E94E50601C046830E94D81BC80159
:101E60000F900F90DF91CF911F910F91FF90EF9006
:101E7000DF90CF90BF90AF909F908F907F905F90BA
:101E80004F900895CF93DF93FC01218D328D211562
:101E9000310519F48FEF9FEF11C0EC014217530782
:101EA00008F0A901888D0E946B0E1816190694F788
:101EB000298D3A8D281B390B3A8F298FDF91CF91CD
:101EC00008950F931F93CF93DF931F92CDB7DEB783
:101ED000FC01218D328D232B61F08C0141E050E01B
:101EE000BE016F5F7F4F808D0E946B0E1816190622
:101EF0001CF08FEF9FEF08C0F801818D928D019744
:101F0000928F818F898190E00F90DF91CF911F9107
:101F10000F9108950F931F93CF93DF93CDB7DEB743
:101F200028970FB6F894DEBF0FBECDBF8C01D80145
:101F300059964D915C915A974115510551F0ED918B
:101F4000FC91048CF58DE02D60E070E0C8010995EE
:101F5000EECFF801808D0E94260B892B51F148E0CD
:101F600050E0BE016F5F7F4FD80158968C910E9460
:101F70006B0E18161906FCF4D801509684E0FE0189
:101F8000319601900D928A95E1F78D8190E0982F1E
:101F900088272E81820F911DF801958B848B8F816C
:101FA00090E0982F88272885820F911D928F818F2E
:101FB00002C080E090E028960FB6F894DEBF0FBE16
:101FC000CDBFDF91CF911F910F9108951F93CF93B4
:101FD000DF9300D0CDB7DEB7182FCE0101960E9457
:101FE000831789819A810E94D91B63E070E0812F59
:101FF0000E944F0D182F0E94D81B812F0F900F9019
:10200000DF91CF911F9108951F93CF93DF9300D05D
:10201000CDB7DEB7FC01108DCE0101960E9483176B
:1020200089819A810E94D91B60E270E0812F0E9411
:10203000E50662E070E0812F0E944F0D84FD1CC018
:1020400062E070E0812F0E944F0D83FF0AC048E1DB
:1020500062E070E0812F0E94310D0E94D81B80E069
:1020600014C00E94D81BCE0101960E94831789815B
:102070009A810E94D91BDDCF40E162E070E0812FA0
:102080000E94310D0E94D81B81E090E00F900F90CC
:10209000DF91CF911F910895CF92DF92EF92FF923F
:1020A0001F93CF93DF93EC011F81662311F0912FD3
:1020B00001C090E0288530E0220F331F215C3C4FA7
:1020C000A0E0B0E0F90145915491FA0180818123AB
:1020D000AD0160E070E089130FC01196CD84DE84FD
:1020E000EF84F8884C155D056E057F0558F33FEFCA
:1020F0002FEF8FEF9FEF03C03A2F252FCB01632FD8
:10210000722FDF91CF911F91FF90EF90DF90CF90D2
:1021100008954F925F926F927F928F929F92AF92AB
:10212000BF92CF92DF92EF92FF920F931F93CF93C4
:10213000DF9300D0CDB7DEB75C0183E595E00E9468
:10214000662181113AC036C08C01CE0101960E94F1
:102150006621882379F1C80101962981F70121932D
:102160007F01422F4F7750E0449DB001459D700D97
:10217000549D700D1124C60ED71E47E0440C551C0B
:10218000661C771C4A95D1F727FF27C0853091053B
:10219000D9F68FEF9FEF9093ED058093EC0580913A
:1021A000510590915205DC01ED91FC910488F5896F
:1021B000E02D099580E090E08EC090905305198243
:1021C00084E5E82E85E0F82E01E010E0C12CD12C4A
:1021D000412C512C32014394B8CFF92DF07FFA8372
:1021E0002FEF280FD5012C93F03319F58D5A9A4F04
:1021F0000E9466218823F1F2C8018B5A9A4F0E94EF
:1022000066218823B9F2C8010396D501EC91F0E06C
:10221000E35BFA4FE780F12CFE2CEE242085E20EE2
:10222000F11C2091530521FF08C0B2E0EB0EF11C18
:1022300004C020E0E12CF12C01C022E0422E512C00
:10224000FC01E35BFA4F4F018C01481A590A2EEF4B
:10225000622E77247A94C801840D951D8C159D05F6
:1022600078F5CE0101960E946621882309F4A2CF59
:102270008091EA059091EB050097B1F0FA81F03377
:1022800099F4D5012C91F301E21BF1099F01200F74
:10229000311FE216F30640F4DC01ED91FC91019050
:1022A000F081E02D698109950038110518F48981C4
:1022B000F40186830F5F1F4FFFEF8F1A9F0ACBCF6A
:1022C0008091EA059091EB05892B21F401381105E5
:1022D00008F070CFC8010F900F90DF91CF911F9140
:1022E0000F91FF90EF90DF90CF90BF90AF909F90B5
:1022F0008F907F906F905F904F900895EF92FF9234
:102300000F931F93CF93DF93FB0100811181FC0199
:10231000E080F180E80109900020E9F72197C01BD7
:10232000D10B0E94ED2081110AC087E193E0DF917B
:10233000CF911F910F91FF90EF900C947017F701C0
:1023400001900020E9F73197EE19FF09CE010796B9
:10235000E80FF91FE138F10540F745E050E063E58B
:1023600075E0C7010E946420F801DC01AD5ABA4F44
:10237000A8014C0F5D1FE417F50719F021912D936B
:10238000FACF2597AE01480F591F63E575E080E34A
:102390000E948420882349F2DF91CF911F910F91F1
:1023A000FF90EF900895EF92FF920F931F93CF93BA
:1023B000DF93CDB7DEB7A1970FB6F894DEBF0FBE9F
:1023C000CDBF7C01CB01BA01F701118210821382CB
:1023D0001282158214828E010F5F1F4F22E044E0AB
:1023E0000E94532B009769F0FC0101900020E9F74F
:1023F0003197AF01481B590BBC01C7010E94600512
:102400000EC0F70180819181009711F00E94C231C6
:10241000F701118210821582148213821282A19612
:102420000FB6F894DEBF0FBECDBFDF91CF911F91E5
:102430000F91FF90EF900895FC018FE092E091835F
:10244000808312821382148215821386128648EECC
:1024500053E060E070E0448755876687778721E521
:1024600031E031872087978B868B108E118E128EEC
:10247000138E84E080A308958F929F92AF92BF92B3
:10248000CF92DF92EF92FF921F93CF93DF93CDB75E
:10249000DEB72C970FB6F894DEBF0FBECDBF2091EC
:1024A000A204222309F4B4C06B017C01CE01019681
:1024B0000E94831789819A810E94D91B5E0127E0BF
:1024C000A20EB11C450110E063E070E0812F0E9474
:1024D0004F0DF40181934F018823C9F01F5F143021
:1024E00099F710E0F50181915F018D3159F0883144
:1024F00049F08A51823030F01F5F143099F70E9402
:10250000D81B86C060E170E0812F0E94E506A12EF5
:10251000B12C83EE93E00197F1F742E860E070E0C0
:10252000812F0E94310D4FEF62E070E0812F0E94F9
:10253000310DC114D10411F0B60113C08091060110
:102540009091070101968115F0EC9F0710F480E04F
:1025500090EC9093070180930601609106017091C1
:102560000701812F0E94D30C86E0EFE1F1E0DE014C
:10257000119601900D928A95E1F7F70183818F778B
:102580008C8384818D8385818E83A7014E5F5F4F0D
:1025900024E030E06CE070E0812F0E94E40BB60193
:1025A000812F0E94BE0C26E030E0AE014F5F5F4FEE
:1025B00066E070E0812F0E94E40B61E070E0812F03
:1025C0000E94E50627E02A9DC0012B9D900D112455
:1025D0009C0122583B4F7901F9011182108222E0BF
:1025E00030E0AE01455F5F4F68E270E0812F0E94EE
:1025F000BF1B8B859C85982789279827F701938394
:1026000082831682158214820E94D81B812F01C0FA
:1026100084E02C960FB6F894DEBF0FBECDBFDF91DD
:10262000CF911F91FF90EF90DF90CF90BF90AF9030
:102630009F908F90089590E0FC01E55DFC4F249100
:10264000FC01E35AFC4F3491FC01E75BFC4FE49141
:10265000EE2309F43CC0222339F1233091F038F401
:102660002130A9F0223001F584B58F7D12C02730CA
:1026700091F02830A1F02430B9F4809180008F7D52
:1026800003C0809180008F77809380000DC084B557
:102690008F7784BD09C08091B0008F7703C080918F
:1026A000B0008F7D8093B000F0E0EE0FFF1FEF5D74
:1026B000FC4FA591B4919FB7F894611104C08C911F
:1026C0003095382302C0EC913E2B3C939FBF089578
:1026D000CF93DF9390E0FC01E35AFC4F2491FC017F
:1026E000E75BFC4F8491882361F190E0880F991F8C
:1026F000FC01E95EFC4FC591D491FC01EF5DFC4FFC
:10270000A591B491611109C09FB7F8948881209573
:1027100082238883EC912E230BC0623061F49FB733
:10272000F8948881322F309583238883EC912E2B67
:102730002C939FBF06C08FB7F894E8812E2B288377
:102740008FBFDF91CF9108953FB7F89480917A04BD
:1027500090917B04A0917C04B0917D0426B5A89B48
:1027600005C02F3F19F00196A11DB11D3FBFBA2F23
:10277000A92F982F8827820F911DA11DB11DBC0183
:10278000CD0142E0660F771F881F991F4A95D1F748
:1027900008958F929F92AF92BF92CF92DF92EF9265
:1027A000FF926B017C010E94A4134B015C01C114D8
:1027B000D104E104F104F1F00E94A413DC01CB0187
:1027C00088199909AA09BB09883E9340A105B1055A
:1027D00070F321E0C21AD108E108F10888EE880EF2
:1027E00083E0981EA11CB11CC114D104E104F104C2
:1027F00019F7DDCFFF90EF90DF90CF90BF90AF90B3
:102800009F908F9008952FB7F894609176047091FF
:10281000770480917804909179042FBF08958F9266
:102820009F92AF92BF92CF92DF92EF92FF920F935F
:102830001F93CF93DF93CDB7DEB7C054D1400FB60F
:10284000F894DEBF0FBECDBF8C010E940314F801C7
:10285000C184D284E384F4849B01AC012C193D092A
:102860004E095F0969017A0130EDC31637E0D306DE
:10287000E104F10410F48189C2C0F8016187728714
:10288000838794871482138212821182108262E0FD
:1028900085810E94681361E070E080E090E00E9412
:1028A000C91361E0F80185810E94681360E0F801B6
:1028B00085810E941B13F80186818551823028F49E
:1028C0008BE291E10197F1F706C064E170E080E0EE
:1028D00090E00E94C91362E0F80185810E946813AC
:1028E000F801828990E08230910538F0880F991FB5
:1028F000880F991F05970197F1F7F89460E0C801D8
:102900000E944C106F3F7F4F8F4F9F4F21F4F80173
:10291000118A789445C061E0C8010E944C106F3F55
:102920007F4F8F4F9F4F99F39E012F5F3F4F79014C
:102930005E013FEBA31A3EEFB30A670160E0C801F6
:102940000E944C10F601608371838283938361E05F
:10295000C8010E944C10F6016483758386839783B7
:10296000F8E0CF0ED11CCA14DB0441F7789420E0C4
:1029700030E0F70180809180A280B380448155814E
:1029800066817781FFEF8F169F06AF06BF0631F095
:102990004F3F8FEF58076807780721F4F801118A35
:1029A00080E02DC0F90183E0F595E7958A95E1F780
:1029B000E00FF11F8081880F84169506A606B706E2
:1029C00008F4816080832F5F3F4FF8E0EF0EF11C29
:1029D0002832310571F6F801248130E0408181818F
:1029E00090E0840F911D4281840F911D4381840FDB
:1029F000911D99272817390789F681E0818BC05CE2
:102A0000DE4F0FB6F894DEBF0FBECDBFDF91CF9182
:102A10001F910F91FF90EF90DF90CF90BF90AF90FC
:102A20009F908F9008954F925F926F927F928F92B6
:102A30009F92AF92BF92CF92DF92EF92FF920F934D
:102A40001F93CF93DF93CDB7DEB763970FB6F8949C
:102A5000DEBF0FBECDBF7C015B013A01FB0120E070
:102A600080E090E06AE03191332309F140ED430FBB
:102A70004A3080F4689FA001699F500D1124CA015B
:102A8000C097830F911D37FD9A958F3F910559F39C
:102A900050F313C03E3289F4233079F0D301A20FF2
:102AA000B11D12968C932F5F80E090E0DCCF233035
:102AB00021F4F301858381E021C0F7014281538134
:102AC000648175818091430590914405A0914505ED
:102AD000B0914605481759076A077B0709F491C169
:102AE0000E9403148701085F1F4F6F7077277C5F78
:102AF000C8010E94180E813019F080E090E0D9C121
:102B00008FE092E09A838983F70182819381A48187
:102B1000B5818B839C83AD83BE8345E350E0BE01CA
:102B20006F5F7F4FC8010E94E80C892B19F4C12CFC
:102B3000D12C62C10E940314F7017783668342E0BF
:102B400050E0B7016A5F7F4FC8010E94750C81E0B9
:102B500090E09A83898342E050E0BE016F5F7F4F2F
:102B6000C8010E94750C80E091E09A83898342E05D
:102B700050E0BE016F5F7F4FC8010E94750C1A8242
:102B8000198242E050E0BE016F5F7F4FC8010E9492
:102B9000750C42E050E0BE016F5F7F4FC8010E949C
:102BA000750C42E050E0BE016F5F7F4FC8010E948C
:102BB000750C4501F5018081882301F164015601FE
:102BC000F60181912F01882321F08E3211F06201EC
:102BD000F6CFC818D9081C141D0474F4CD8641E042
:102BE00050E0BE01635F7F4FC8010E94750CA601D3
:102BF000B401C8010E94750C4201DCCF1D8641E082
:102C000050E0BE01635F7F4FC8010E94750CC12C6C
:102C1000DD24D394DA82C98242E050E0BE016F5FC6
:102C20007F4FC8010E94750CDA82C98242E050E0F1
:102C3000BE016F5F7F4FC8010E94750CC8010E94E2
:102C40000410892B09F473CFE3E0AE2EB12C2301DD
:102C500022E0420E511C0E9403143B014C01C801AA
:102C60000E948A0F18161906A4F00E940314DC01B2
:102C7000CB0186199709A809B90989389341A1059B
:102C8000B105D0F462E370E080E090E00E94C913E7
:102C9000E6CFF7014281538164817581808D918DEA
:102CA000A28DB38D481759076A077B0749F4848DB5
:102CB000958DC59729F409C0CC24CA94DC2C93C007
:102CC0005EEFC52EDD24DA948EC0F70181A192A1BA
:102CD0000C970CF4E9C04CE050E0BE016F5F7F4FF1
:102CE000C8010E94420F8B819C81982789279827D1
:102CF0009A8B898BF7014681578129813A81421746
:102D0000530709F0C2C097FFC0C08F709270892B23
:102D100009F0C0C06F80788476246724762461141B
:102D2000710409F4BCC0C12CD12C8D819E819827DF
:102D300089279827C816D90608F466C0812C912CDB
:102D400041E050E0BE016D5E7F4FC8010E94420F1E
:102D50004B89842F807C09F076C0442331F050E009
:102D600060E070E0C8010E94420F8B898111E8CFBA
:102D700042E050E0BE01615F7F4FC8010E94420FF8
:102D800042E050E0BE01635F7F4FC8010E94420FE6
:102D900044E050E060E070E0C8010E94420F42E071
:102DA00050E0BE016F5E7F4FC8010E94420F8F85C9
:102DB000988949895A898115914009F04DC0CD847F
:102DC000DE84DC24CD24DC2481E0C816D10409F0A3
:102DD00043C04115544009F053C044E050E0B201F3
:102DE000C8010E94420F21E0A21AB10829F0FFEFAA
:102DF000CF16DF0609F42FCFC8010E94D60BC601FB
:102E000058C08EEF9FEF55C041E050E0BE01635FB8
:102E10007F4FC8010E94420F4D85442331F050E09E
:102E200060E070E0C8010E94420F8D858111ECCFF7
:102E300044E050E060E070E0C8010E94420FFFEF04
:102E4000CF1ADF0A72CF41E050E060E070E0C801C5
:102E50000E94420F1B8A89CF54274527542760E0E0
:102E600070E0C8010E94420FFFEF8F1A9F0A68149A
:102E7000790409F065CF96EFC92EDD24DA94B3CF3B
:102E800077EFC72EDD24DA94AECF4CEFC42EDD24CD
:102E9000DA94A9CF3BEFC32EDD24DA94A4CF2AEF36
:102EA000C22EDD24DA949FCF8DEFC82EDD24DA9474
:102EB0009ACF63960FB6F894DEBF0FBECDBFDF91F9
:102EC000CF911F910F91FF90EF90DF90CF90BF9027
:102ED000AF909F908F907F906F905F904F900895EC
:102EE000CF93DF93BC0184EA94E00E94BF05EC011C
:102EF00060E972E084EA94E00E94BF058C0F9D1F98
:102F0000DF91CF91089520E5FC01208321E021830A
:102F10000895CF92DF92EF92FF92CF93DF93CDB7D8
:102F2000DEB7C454D1090FB6F894DEBF0FBECDBFD3
:102F3000FC01428153816481758123964CAF5DAF62
:102F40006EAF7FAF239781E023968FAF23972396B1
:102F5000CCACDDACEEACFFAC2397CBAADCAAEDAADF
:102F6000FEAA4DA75EA76FA778AB88ABCDA4DEA461
:102F7000EFA4F8A8CFA2D8A6E9A6FAA68EABCBA854
:102F8000DCA8EDA8FEA8C9A2DAA2EBA2FCA22FE061
:102F900032E03C8B2B8B9FEF9D8B9E8B9F8B188EF3
:102FA0003E872D878AA7CFA0D8A4E9A4FAA4CF860C
:102FB000D88AE98AFA8A8CA389A19AA1ABA1BCA17B
:102FC00089879A87AB87BC873A8329834B835C8345
:102FD0006D837E838091A3048823D1F1CE018D5B24
:102FE0009F4F0E94831725968EAD9FAD25970E9417
:102FF000D91B46E050E068E071E089E090E00E9473
:10300000C509CE0103960E94D11B44E050E0BE01E9
:10301000615F7F4F81E090E00E94C50944E050E08D
:10302000BE016B5E7F4F85E090E00E94C5090E9463
:10303000D81B81E08C8789859A85AB85BC85809378
:10304000490590934A05A0934B05B0934C0504C0E5
:103050000E9482078111C2CFCC5BDF4F0FB6F8947C
:10306000DEBF0FBECDBFDF91CF91FF90EF90DF901D
:10307000CF90089520E3FC0120833296862F82951D
:103080008F7090E1899F601911246A3014F4605D9B
:1030900001C0695C6293682F8111F0CF08952F926F
:1030A0003F924F925F926F927F928F929F92AF92D8
:1030B000BF92CF92DF92EF92FF920F931F93CF9325
:1030C000DF93CDB7DEB7E9970FB6F894DEBF0FBE3A
:1030D000CDBF7C014A015B0119010E9403142B0141
:1030E0003C0187010D5B1F4FC8010E948A0F181613
:1030F0001906A4F00E940314DC01CB018419950980
:10310000A609B70988169906AA06BB06D8F062E395
:1031100070E080E090E00E94C913E6CF42E250E008
:10312000BE016F5F7F4FC8010E94420F89818230CC
:1031300011F080E035C1F8018489958983349105C7
:10314000C1F702C08FEF2CC16D817E818F81988580
:103150000E9405302B013C01F10160837183828361
:10316000938346E050E0B701685F7F4FCE014D96F4
:103170000E941633892BE9F6F70180819181A281A3
:10318000B381481659066A067B0698F284819581B8
:10319000A681B78184159505A605B70550F28989E2
:1031A0009A89AB89BC8986879787A08BB18B4EECB7
:1031B00050E060E070E0C8010E94420F1FA6670166
:1031C000F2E2CF0ED11CC701869699AB88ABF7010E
:1031D000BA96FBABEAAB4701FAE18F0E911C8D96D4
:1031E0009DAB8CABF7017296FFABEEABCD9799AF71
:1031F00088AF17019EE1290E311CF801818D928D57
:10320000181619060CF0CBC0C8010E94610F833359
:10321000910509F4A5C0ACF48130910569F11CF465
:10322000892B59F3B6C08330910571F1069709F0E7
:10323000B0C0C8010E94610F5C0144E050E0B101E0
:103240002BC08A33910509F45FC034F485339105AE
:1032500059F0C69771F19DC08B33910509F46AC08E
:103260008F3F910551F295C0C8010E94610FC801BE
:103270000E94610F8FA7C1CFC8010E94610F44E077
:1032800050E06EA97FA911C0C8010E94610F5C01C6
:1032900044E050E068AD79ADC8010E94420FA5013D
:1032A00055274450510960E070E0C8010E94420F68
:1032B000A4CFC8010E94610F5C01B401CE018396C6
:1032C0000E9467068DA19EA1AFA1B8A5892B8A2B6C
:1032D0008B2BA1F0ECA9FDA9408051806280738006
:1032E000B401CE0189960E9467068BA59CA5ADA569
:1032F000BEA584159505A605B70521F444E050E068
:10330000B401D3CFA50149C0C8010E94610F44E0B8
:1033100050E068A979A9C8010E94420FF70166A18F
:1033200077A180A591A50E94053066A377A380A709
:1033300091A763CFC8010E94610F44E050E06AA9E1
:103340007BA9C8010E94420FF70162A573A584A55D
:1033500095A50E94053062A773A784A795A74DCFB6
:10336000C8010E94610F44E050E0B601C8010E940C
:10337000420FF70162A173A184A195A10E940530BB
:1033800062A373A384A395A366A777A780AB91AB31
:1033900034CFC8010E94610FAC01552784CF8FA59F
:1033A000E9960FB6F894DEBF0FBECDBFDF91CF9187
:1033B0001F910F91FF90EF90DF90CF90BF90AF9053
:1033C0009F908F907F906F905F904F903F902F9045
:1033D0000895FC019485FB018485981303C081E066
:1033E000943008F080E00895CF93DF931F92CDB71B
:1033F000DEB76983DC01ED91FC910280F381E02D61
:1034000041E050E0BE016F5F7F4F09950F90DF9163
:10341000CF910895FC01848595850895FC018489E8
:10342000958908952FE032E0FC0131832083FB0170
:103430004089518962897389FC0142835383648383
:1034400075830895DC01ED91FC91048CF58DE02DE0
:10345000099480E00895FC01768765870895DC0172
:10346000ED91FC91068CF78DE02D099591E089276F
:103470000895862F089581E08627089521E0FC01B4
:103480008485843008F020E0822F089508950895FF
:1034900080E090E00895CF93DF93EC018C85843039
:1034A000C8F40E94E60F843181F0882371F08831DE
:1034B00061F08C3161F4E881F9810084F185E02DBF
:1034C000CE01099521E0892B19F420E001C021E00B
:1034D000822F01C080E0DF91CF910895EF92FF929B
:1034E0000F931F93CF93DF93EC018B017A010E941E
:1034F0000314FE01E857FF4F608371838283938337
:103500008C819D81DC01ED91FC910280F381E02DA5
:10351000A701B801DF91CF911F910F91FF90EF901C
:1035200009941F93CF93DF93EC01162F0E9403148D
:10353000FE01E857FF4F60837183828393838C8100
:103540009D81DC01ED91FC910190F081E02D612FD6
:10355000DF91CF911F910994CF92DF92EF92FF926A
:10356000CF93DF93EC018C85843038F50E945C0B9F
:103570000E9403146B017C018C850E94E60F882356
:10358000D1F061E070E080E090E00E94C9130E94F9
:103590000314AB01BC014C195D096E097F098D85CF
:1035A0009E85A0E0B0E0481759076A077B0720F323
:1035B0008C850E94780B84E08C87DF91CF91FF90FF
:1035C000EF90DF90CF900895CF93DF93EC018C853F
:1035D000843060F40E94E60F873111F08C3131F4B1
:1035E0008C850E943C0E8115984088F3DF91CF9125
:1035F0000895FC018485843010F40C943C0E80E026
:1036000090E00895CF93DF931F92CDB7DEB741E0EE
:1036100050E0BE016F5F7F4FFC0184850E946B0EFE
:10362000181619061CF4898190E002C08FEF9FEFF5
:103630000F90DF91CF910895FC018485843010F4C0
:103640000C946B0E80E090E00895CF93DF93FC0123
:103650002485243018F08FEF9FEF0EC0EC0101900D
:10366000F081E02D0084F185E02D0995892B99F3F7
:103670008C850E94EA0A90E0DF91CF910895FC01C9
:103680008485843010F40C94260B80E090E008953B
:10369000CF92DF92EF92FF920F931F93CF93DF931E
:1036A000CDB7DEB7AF970FB6F894DEBF0FBECDBF74
:1036B0008C016B017A01CE0101960E941C128FE0F1
:1036C00092E09BA78AA71CA61DA61EA61FA6D8012E
:1036D0001C968C91843060F40E94E60F882321F0C0
:1036E000F80184850E945C0B84E0D8011C968C93C1
:1036F0008091490590914A05A0914B05B0914C05E8
:103700008EA39FA3A8A7B9A78B839C83AD83BE83F9
:1037100018861F82AE01465D5F4FB601CE0101964D
:103720000E9413150097C1F0D801ED91FC91068419
:10373000F785E02D8FE092E09DA38CA38CA59DA53D
:10374000AEA5BFA58EA39FA3A8A7B9A7A701BE0139
:103750006C5D7F4FC8010995AF960FB6F894DEBF38
:103760000FBECDBFDF91CF911F910F91FF90EF90D2
:10377000DF90CF9008950C94C2310C94C231DA01DD
:1037800090917404E92FF0E0FE2FEE27E60FF71F6B
:1037900090E0982F8827A901BD018E0F9F1F0C94E0
:1037A000F50644E050E0BC018FE090E00C94C509C0
:1037B00008958CBD9DBD08950F931F93CF93DF9304
:1037C00000D0CDB7DEB7FC0124852430D0F48C01C5
:1037D000CE0101960E94831789819A810E94D91B8C
:1037E00022E030E0AE014F5F5F4F64E070E0F8012F
:1037F00084850E94BF1B89819A81982789279827F1
:1038000002C080E090E00F900F90DF91CF911F9168
:103810000F9108956F927F928F929F92AF92BF9275
:10382000CF92DF92EF92FF921F93CF93DF9300D05E
:10383000CDB7DEB7FC011485143008F061C06A0111
:103840004130F8E05F0718F0C12C28E0D22E7A0151
:103850003B015C01CE0101960E94831789819A8108
:103860000E94D91B812F0E94AE0A4C0163E070E0D8
:10387000812F0E944F0D873111F08C3121F48C146F
:103880009D0440F302C0C12CD12CCE0101960E94B0
:10389000831789819A810E94D91B9601A30160E058
:1038A00070E0812F0E94F60B60E270E0812F0E9491
:1038B000E50662E070E0812F0E944F0D84FD16C086
:1038C00063E070E0812F0E944F0D811106C081E0FE
:1038D00090E0F5019383828313C0CE0101960E948C
:1038E000831789819A810E94D91BE3CF40E162E06E
:1038F00070E0812F0E94310DCD2849F3C70102C02D
:1039000080E090E00F900F90DF91CF911F91FF909A
:10391000EF90DF90CF90BF90AF909F908F907F906F
:103920006F900895AF92BF92CF92DF92EF92FF9285
:103930000F931F93CF93DF9300D0CDB7DEB78C01E9
:103940006B015A01FC018485843058F40E94E60F13
:10395000882321F0F80184850E945C0B84E0F80143
:103960008487F60182819381A481B5810097A105A6
:10397000B10509F462C08F3F9F4FAF4FBF4F09F4AD
:103980005CC08091A204882339F060E070E081E29D
:103990000E946D0DF82E02C084E0F82EF801F48626
:1039A000F3E0FF1508F449C0CE0101960E94831789
:1039B00089819A810E94D91BA6014E5F5F4F24E046
:1039C00030E06CE070E08F2D0E94E40BB5018F2D8C
:1039D0000E94BE0C64E070E08F2D0E94E5060E94FC
:1039E00003146B017C01F80184850E94E60F873186
:1039F00039F18C3129F1882301F10E940314AB01C4
:103A0000BC014C195D096E097F09F8018585968511
:103A1000A0E0B0E084179507A607B70738F061E08B
:103A200070E080E090E00E94C913DDCFF80184854A
:103A30000E94780B84E0F801848780E090E002C067
:103A400081E090E00F900F90DF91CF911F910F9147
:103A5000FF90EF90DF90CF90BF90AF9008950895C2
:103A60000895EF92FF920F931F93CF93DF9300D0AF
:103A700000D0CDB7DEB78C017B01FB01848584309B
:103A800050F08FE092E0F8019183808312821382DC
:103A90001482158219C0CE0101960E948317898174
:103AA0009A810E94D91B24E030E0AE014F5F5F4F46
:103AB0006CE070E0F70184850E94BF1BBE016F5F60
:103AC0007F4FC8010E946706C8010F900F900F90AA
:103AD0000F90DF91CF911F910F91FF90EF9008957C
:103AE000CF92DF92EF92FF920F931F93CF93DF93CA
:103AF000CDB7DEB728970FB6F894DEBF0FBECDBFA7
:103B00008C017B016A0162EB73E084EA94E00E941D
:103B1000BF05B80184EA94E00E94BF0564EC73E03D
:103B200084EA94E00E94BF0562E972E0CE0101964A
:103B30000E94AA058701CE0CDF1C0C151D05F9F0AB
:103B4000F80181918F018F831886ED80FE80FFEF51
:103B5000EF1AFF0AB701CE0101960E9439058823AA
:103B600061F329813A818D819E81BE01695F7F4F1A
:103B7000820F931F0E944533FE82ED82DECF82E9E1
:103B800092E00E947017CE0101960E948B05289644
:103B90000FB6F894DEBF0FBECDBFDF91CF911F915E
:103BA0000F91FF90EF90DF90CF9008957F928F92CA
:103BB0009F92AF92BF92CF92DF92EF92FF920F93BC
:103BC0001F93CF93DF93CDB7DEB7A6970FB6F894C8
:103BD000DEBF0FBECDBF8C01762E942E852E20E247
:103BE000B22ECE0101967C01FC012B2D11922A955B
:103BF000E9F78FE092E09AA389A38FEF8BA38CA3C0
:103C00008DA38EA3680183E4C80ED11C43E450E069
:103C1000BE016F5D7F4FC6010E94E80C019609F45A
:103C2000B9C081E089838A8386E0A82EAB821C829A
:103C3000F80164817581868197810E9405306D83CA
:103C40007E838F83988789869A8680E890E09C8718
:103C50008B874CE150E0B701C6010E94750CF7015B
:103C60002B2D11922A95E9F7480188E0880E911CC6
:103C7000F401D70101900D92AA94E1F740E150E0E0
:103C8000B701C6010E94750CF7011192BA94E9F7C9
:103C900096E0A92EB12C40E250E0B701C6010E9487
:103CA000750CF1E0AF1AB108B1F783E6898392E8A9
:103CB0009A8393E59B838C8385E38D8381E08E8358
:103CC0007F829DE3988797E099878A8786E0F40151
:103CD000DE011B9601900D928A95E1F78CE0898BAD
:103CE0008A8B60ED73E0CE0143960E944533F80164
:103CF0006385CE0149960E943A18F8016485CE0189
:103D00004B960E943A18F8016585CE014D960E94A7
:103D10003A184EE150E0B701C6010E94750CF3E07D
:103D20007F121EC082E3898384E08A83F80196852E
:103D30009B8397859C8390899D8391899E8396E33D
:103D40009F838887828D8987838D8A87848D8B87DF
:103D5000858D8C874CE050E0B701C6010E94750C40
:103D600087E3898386E08A8391E09B8393E09C8349
:103D70008D838FE08E838AE38F838BE388878FEF39
:103D8000898749E050E0B701C6010E94750CC60161
:103D90000E940410A6960FB6F894DEBF0FBECDBFEA
:103DA000DF91CF911F910F91FF90EF90DF90CF9017
:103DB000BF90AF909F908F907F9008950F931F9327
:103DC000CF93DF938C01C0E0D0E0F801EC0FFD1F32
:103DD0006491662341F084EA94E00E947802892B82
:103DE00011F02196F2CFCE01DF91CF911F910F916B
:103DF0000895CF93DF930E94DE1EEC0160E972E02C
:103E000084EA94E00E94BF058C0F9D1FDF91CF9143
:103E100008958F929F92AF92BF92CF92DF92EF92CE
:103E2000FF920F931F93CF93DF936B017C01142FAD
:103E30009B01AC010E942531882319F067ED73E0E6
:103E400027C046015701E894B7F82FEF3FEF4FE73F
:103E50005FE7C501B4010E94253181110DC02FEF2C
:103E60003FEF4FE75FE7C501B4010E94472E1816E8
:103E70001CF46BED73E00CC02FEF3FEF4FE75FE4F6
:103E8000C701B6010E942031181694F46FED73E05B
:103E900084EA94E0DF91CF911F910F91FF90EF9012
:103EA000DF90CF90BF90AF909F908F900C94BF0504
:103EB0002FEF3FEF4FE75FECC701B6010E94472E9F
:103EC00087FDE4CF20E030E0A901C701B6010E94E0
:103ED000472E87FF0BC06DE284EA94E00E947802CF
:103EE000EC01F7FAF094F7F8F09402C0C0E0D0E0EB
:103EF00000E060E070E080E09FE3101741F020E018
:103F000030E040E251E40E947F300F5FF6CFA7011E
:103F100096010E9413306B017C010E94F1304B012D
:103F20005C012AE0AB01BC0184EA94E00E94D40564
:103F3000C80FD91F1123C9F1C501B4010E944C2E2D
:103F40009B01AC01C701B6010E9412306B017C01DC
:103F50006EE284EA94E00E947802C80FD91F20E044
:103F600030E040E251E4C701B6010E94AD2E4B01A2
:103F70005C010E94F1306B01E12CF12C2AE0B701C9
:103F8000A60184EA94E00E94D405C80FD91FC70196
:103F9000B6010E944C2E9B01AC01C501B4010E94E8
:103FA00012306B017C011150D1F6CE01DF91CF911F
:103FB0001F910F91FF90EF90DF90CF90BF90AF9047
:103FC0009F908F900895CF92DF92EF92FF92CF93C0
:103FD000DF936B017C016DE284EA94E00E94780239
:103FE000EC0144275527BA014C195D096E097F0978
:103FF0002AE084EA94E00E94D4058C0F9D1FDF9193
:10400000CF91FF90EF90DF90CF900895CF93DF9303
:1040100097FF03C00E94E31F07C02AE0AB01BC0169
:1040200084EA94E00E94D405EC0160E972E084EA3D
:1040300094E00E94BF058C0F9D1FDF91CF910895E2
:10404000FB01DC0153968C918C3041F038F48B30BD
:1040500029F480E492E4AFE0B0E004C080E894E8A2
:10406000AEE1B0E084A395A3A6A3B7A30895CF9330
:10407000DF93EB01FC0183898C3089F038F48B30BD
:10408000C1F44BE050E063EE73E017C0853161F09E
:10409000863179F44BE050E065EF73E00EC04BE001
:1040A00050E069EE73E009C04BE050E06FEE73E062
:1040B00004C04BE050E06BEF73E0CE010E944C3344
:1040C0001B86DF91CF910895CF93DF93EC01FA0126
:1040D0003296E60FF71FDC01AD014C1B5D0BCF01E3
:1040E000861B970B2D91222311F02193F5CF9C0174
:1040F000241B350B620F731FFB01329750833196DF
:104100004083DF91CF910895EF92FF920F931F9319
:10411000CF93DF9300D000D0CDB7DEB77B01BA01DB
:1041200030E0962F9F77660F672F661F770B71958C
:104130006115710509F0906821E0230FE1E0F0E0DE
:10414000EC0FFD1FE30FF11D90836115710511F058
:10415000322FE7CF30E0B701621B730B6C5F7F4FEC
:10416000DB018C93DE011196F701E21BF30B359610
:1041700085E0E80EF11CEE16FF0619F08D91819393
:10418000FACF80915105909152052F5F3F4F8901E1
:10419000040F151FDC01ED91FC910280F381E02DED
:1041A000A80109957C010E9403146093D5057093C2
:1041B000D6058093D7059093D80581E00E151F058D
:1041C00009F080E00F900F900F900F90DF91CF914A
:1041D0001F910F91FF90EF900895CF93809151051B
:1041E00090915205009771F1DC01ED91FC910688E8
:1041F000F789E02D0995C1E0811125C0C0E08091CB
:10420000EC059091ED05892BF1F48DEF9FEF9093E4
:10421000ED058093EC058091510590915205DC01EC
:10422000ED91FC910680F781E02D09958091510573
:1042300090915205DC01ED91FC910488F589E02D07
:10424000099501C0C0E08C2FCF910895CF93DF93E3
:10425000FC0101900020E9F79F01281B390B285F22
:104260003F4F2138310570F5EC010E94ED20882385
:1042700049F18091D3059091D405019611F481E024
:1042800090E09093D4058093D3058091D3059091CD
:10429000D405909358058093590547E050E063E5B5
:1042A00075E0CE010E946420FC01E35BFA4F1682A8
:1042B000AC014450510963E575E082E8DF91CF918C
:1042C0000C94842080E0DF91CF910895CF92DF920B
:1042D000EF92FF92CF93DF93EC010E9403146B01E6
:1042E0007C018091510590915205DC01ED91FC918A
:1042F0000084F185E02D0995892B79F40E9403143F
:10430000DC01CB018C199D09AE09BF0988399A439C
:10431000A105B10530F380E00DC080915105909169
:104320005205DC01ED91FC910284F385E02D0995A5
:10433000888381E0DF91CF91FF90EF90DF90CF9065
:1043400008951F920F920FB60F9211242F933F934F
:104350008F939F93AF93BF9380917604909177044E
:10436000A0917804B091790430916B0623E0230F7B
:104370002D3720F40196A11DB11D05C026E8230F9D
:104380000296A11DB11D20936B0680937604909335
:104390007704A0937804B093790480917A04909183
:1043A0007B04A0917C04B0917D040196A11DB11DF8
:1043B00080937A0490937B04A0937C04B0937D0453
:1043C000BF91AF919F918F913F912F910F900FBE11
:1043D0000F901F901895CF93DF93CDB7DEB7EA9774
:1043E0000FB6F894DEBF0FBECDBF789484B582605F
:1043F00084BD84B5816084BD85B5826085BD85B589
:10440000816085BD80916E00816080936E00109206
:104410008100809181008260809381008091810081
:104420008160809381008091800081608093800012
:104430008091B10084608093B1008091B000816070
:104440008093B00080917A00846080937A0080919C
:104450007A00826080937A0080917A0081608093F4
:104460007A0080917A00806880937A001092C1006F
:10447000E091B404F091B50482E08083E091B0044F
:10448000F091B1041082E091B204F091B3048FEC8A
:1044900080831092BC04E091B804F091B90486E0E6
:1044A0008083E091B604F091B704808180618083BD
:1044B000E091B604F091B704808188608083E09138
:1044C000B604F091B704808180688083E091B604DF
:1044D000F091B70480818F7D808389E192E00E9412
:1044E00070178091600481112AC0109248041092C4
:1044F000470488EE93E0A0E0B0E0809349049093F5
:104500004A04A0934B04B0934C0481E591E090934E
:104510004604809345048FE092E090935404809386
:10452000530410925504109256041092570410929E
:10453000580484E080935D0481E08093600482E00D
:1045400094E090930104809300048091A304882355
:1045500009F48AC0CE0101960E94831789819A814D
:104560000E94D91B46E050E068E071E089E090E0ED
:104570000E94C5098FE092E09A8389831B821C8286
:104580001D821E82CE0103960E94D11B0E94D81B61
:1045900010922404109225041092260410922704ED
:1045A000109228041092290410922A0410922B04CD
:1045B00010922C0410922D0410922E0410922F04AD
:1045C00080E69AEEA0E0B0E080933804909339043E
:1045D000A0933A04B0933B0480EA9FE0A0E0B0E0EF
:1045E00080933C0490933D04A0933E04B0933F0419
:1045F00084E1E0E1F4E0DF011D928A95E9F786E0CD
:10460000E8E0F1E0AAE0B4E001900D928A95E1F7CC
:10461000109244040E94BE2B2FEC37E040E050E0A3
:104620000E946B2FDC01CB010196A11DB11D80936F
:10463000060490930704A0930804B09309048093A0
:10464000020490930304A0930404B093050485E44A
:1046500094E00E94D60B64E470E085E494E00E944C
:10466000180E882329F013C00E948207811172CF8F
:104670008BE392E00E94701760E071E0CE0101963A
:104680000E946706CE0101960E948917E2C10E942E
:1046900003144B015C01E12CF12CA3E0DA2EB8EEFF
:1046A0004B2EB3E05B2E612C712C02E08091440410
:1046B000833009F443C1811127C080910604909191
:1046C0000704A0910804B09109040196A11DB11D31
:1046D0008093060490930704A0930804B093090400
:1046E0000E940314681979098A099B09A3019201A0
:1046F0000E94D42FA90161E082E094E00E94D61DBF
:1047000081E080934404FFC0843031F58091060439
:1047100090910704A0910804B09109040196A11D8D
:10472000B11D8093060490930704A0930804B093EE
:1047300009040E940314681979098A099B09A301D5
:1047400092010E94D42FA90163E082E094E00E94CC
:10475000D61D00934404D7C0813091F540913C04AC
:1047600050913D0460913E0470913F049E012F5F83
:104770003F4F82E094E00E944F18182F823009F0DA
:10478000BEC089819A81AB81BC81809306049093DD
:104790000704A0930804B09309040E940314681945
:1047A00079098A099B09A30192010E94D42FA901CA
:1047B00063E082E094E00E94D61D10934404A3C0FD
:1047C000823009F0A0C040913C0450913D046091BA
:1047D0003E0470913F049E012F5F3F4F82E094E0C2
:1047E0000E944F18182F853009F087C0D0924404DA
:1047F0008091240490912504A0912604B09127046F
:10480000892B8A2B8B2B61F424E833E040E050E0C5
:1048100020932404309325044093260450932704C6
:104820008091280490912904A0912A04B0912B042E
:10483000892B8A2B8B2BA1F4809124049091250441
:10484000A0912604B0912704B695A79597958795D2
:104850008093280490932904A0932A04B0932B04F6
:1048600080912C0490912D04A0912E04B0912F04DE
:10487000892B8A2B8B2BE9F48091240490912504B9
:10488000A0912604B0912704AC01BD01E3E0769528
:10489000679557954795EA95D1F7841B950BA60B1D
:1048A000B70B80932C0490932D04A0932E04B09307
:1048B0002F048091280490912904A0912A04B0919A
:1048C0002B048093300490933104A0933204B0936E
:1048D000330480912C0490912D04A0912E04B0916A
:1048E0002F048093340490933504A0933604B0933E
:1048F0003704EE24E394F12C06C0863011F01F3FFC
:1049000011F41092440431E0E316F10409F4CECE20
:104910000E940314DC01CB0188199909AA09BB097B
:10492000209138043091390440913A0450913B046D
:10493000281739074A075B0708F0B8CE85E494E0EA
:104940000E94D60B8091060490910704A091080460
:10495000B09109040196A11DB11D809306049093A6
:104960000704A0930804B09309040E940314609301
:10497000400470934104809342049093430441E0C7
:10498000E416F10409F062C0CE0101960E9483177B
:1049900089819A810E94D91B609100047091010461
:1049A000625F7F4FCE0101960E946706CE0103969B
:1049B0000E94D11B60910004709101046A5E7F4FD8
:1049C000CE0101960E94670644E050E0BE016D5F93
:1049D0007F4F81E090E00E94C509609100047091D2
:1049E00001046E5E7F4FCE0101960E94670644E08F
:1049F00050E0BE016D5F7F4F85E090E00E94C509E9
:104A00000E94D81B6091000470910104625E7F4F88
:104A1000CE0101960E9467068B819C81AD81BE818B
:104A20008093490590934A05A0934B05B0934C059C
:104A30000E94A4137F73809106019091070168275B
:104A40007927709307016093060103C0EF2809F4EA
:104A50000FCE6FE772E084EA94E00E94BF058E01FA
:104A60000D5F1F4F7E0157E0E50EF11C3FE0A32EC6
:104A700032E0B32EBA82A9821B821C821D821E8262
:104A8000CE0189960E94831789A59AA50E94D91BF9
:104A900044E050E0BE016D5F7F4F8FE090E00E94E8
:104AA000F5060E94D81BD8014D918D0150E060E0C1
:104AB00070E02AE084EA94E00E94D4056EE972E096
:104AC00084EA94E00E94BF05E016F10699F660E9D9
:104AD00072E084EA94E00E94BF0568EE73E080E033
:104AE00090E00E94C91383E992E00E94701762E08F
:104AF000809105060E9468130E940314DC01CB011B
:104B0000805D9740A109B1098093090690930A0638
:104B1000A0930B06B0930C0687E3809312068EEAEF
:104B200092E00E94F91E809116068BA783EF91E018
:104B30009AA789A780911706909118069DA78CA720
:104B40008091190690911A06A0911B06B0911C063F
:104B50008EA79FA7A8ABB9ABBE016F5F7F4FCE01F9
:104B600089960E94710389E892E00E94F91E86E707
:104B700092E00E94F91E88E692E00E94DE1ECE01BD
:104B800001960E9470178AE592E00E94DE1E6D85F4
:104B90007E858F8598890E9406208CE492E00E9491
:104BA000DE1E69897A898B899C890E9406208EE3A2
:104BB00092E00E94DE1E698D7A8D8B8D9C8D42E085
:104BC0000E94091F8AE392E00E94F91E8CE292E0A3
:104BD0000E94DE1E6D8D7E8D8F8D98A142E00E9419
:104BE000091F88E292E00E94F91E8AE192E00E9489
:104BF000DE1E69A17AA18BA19CA142E00E94091F3F
:104C000086E192E00E94F91E81EF91E00E94F91E78
:104C100080911F068BA785EE91E09AA789A78091C6
:104C20002006909121069DA78CA780912206909145
:104C30002306A0912406B09125068EA79FA7A8ABB6
:104C4000B9ABBE016F5F7F4FCE0189960E94F30220
:104C500081EE91E00E94F91E83ED91E00E94DE1E3C
:104C6000CE0101960E94701785EC91E00E94DE1E35
:104C70006D857E858F8598890E94062087EB91E05F
:104C80000E94DE1E69897A898B899C890E94062090
:104C900089EA91E00E94DE1E698D7A8D8B8D9C8D54
:104CA00042E00E94091F87EA91E00E94F91E89E90B
:104CB00091E00E94DE1E6D8D7E8D8F8D98A142E069
:104CC0000E94091F87E991E00E94F91E89E891E09E
:104CD0000E94DE1E69A17AA18BA19CA142E00E94E4
:104CE000091F87E891E00E94F91E82E691E00E9488
:104CF000F91E6DA17EA18FA198A528EE33E040E0BA
:104D000050E00E946B2F2093680430936904409315
:104D10006A0450936B0461E088E00E94681360E0CD
:104D200088E00E941B1380EA92E09093E70580934D
:104D3000E6058BE597E09093E9058093E80580E729
:104D40009DE19093DF058093DE056CED75E080E0DA
:104D500090E00E94C913FE013896F9AFE8AF2CEF3E
:104D6000C22EDD24DA940E9403142B013C018091B1
:104D70006C0490916D04A0916E04B0916F04A30136
:104D80009201281B390B4A0B5B0BDA01C9018032F7
:104D90009E44A105B10508F404C1609168047091B6
:104DA000690480916A0490916B040E94C9138091F8
:104DB00016068BA743EF51E05AA749A78091170623
:104DC000909118069DA78CA78091190690911A06BC
:104DD000A0911B06B0911C068EA79FA7A8ABB9ABEC
:104DE000BE016F5F7F4FCE0189960E9483048D883C
:104DF0009E88AF88B88CA5019401C501B4010E94BA
:104E00002531882319F08EEF92E028C0B501A40166
:104E1000CE0189960E94D3116AEF75E0CE01C29649
:104E20000E949005BE01675D7F4FCE01C2960E9431
:104E30007E11CE01C2960E948B05CE0189960E94FA
:104E40008B0580EF92E00E94DE1E6D897E898F893E
:104E5000988D42E00E94091F8CEE92E00E94F91E9C
:104E600080911F068BA785EE91E09AA789A7809174
:104E70002006909121069DA78CA7809122069091F3
:104E80002306A0912406B09125068EA79FA7A8AB64
:104E9000B9ABBE016F5F7F4FCE0189960E940404BB
:104EA0008D889E88AF88B88CA5019401C501B40196
:104EB0000E942531882329F087ED92E00E94F91E97
:104EC00065C0B501A401CE0189960E94D31164EF9B
:104ED00075E0CE01C2960E949005BE01675D7F4FCE
:104EE000CE01C2960E947E11CE01C2960E948B0511
:104EF000CE0189960E948B058DEC92E00E94DE1E09
:104F00006D897E898F89988D42E00E94091F8BEC04
:104F100092E00E94F91E20E030E04CE552E46D89F9
:104F20007E898F89988D0E94472E18162CF010923A
:104F300005011092040106C081E090E09093050104
:104F4000809304018091040190910501892B19F44B
:104F500067E172E002C067EE73E0CE0189960E94BD
:104F6000AA056EEE75E0CE01C2960E949005BE01C4
:104F7000675D7F4FCE01C2960E947E11CE01C29620
:104F80000E948B05CE0189960E948B0581E080935B
:104F9000700440926C0450926D0460926E047092A2
:104FA0006F040E94ED208111ECC012E00FE00E941E
:104FB000ED208111E6C069EA72E084EA94E00E9483
:104FC000BF050E94ED208111CBC06091E605709174
:104FD000E70580915105909152054091E805509167
:104FE000E905DC01ED91FC916115710521F0008866
:104FF000F189E02D16C00684F785E02D2FE032E020
:105000003A8329838090E2059090E305A090E4051F
:10501000B090E5058B829C82AD82BE82BE016F5F3F
:105020007F4F09958130910509F093C09093D40585
:105030008093D30587E0E8E1F1E0DE01119601906D
:105040000D928A95E1F7FE013196A8E5B5E08191D0
:105050008D9348AD59AD4E175F07C9F710935F05A3
:1050600010926005009361054FE050E063E575E044
:105070008AEC92E00E946420AC014550510963E53E
:1050800075E080E10E9484200E9403146093D5059E
:105090007093D6058093D7059093D8056093D90572
:1050A0007093DA058093DB059093DC0580915105C0
:1050B00090915205DC01ED91FC910084F185E02D89
:1050C0000995892BD1F40E9403148090D905909002
:1050D000DA05A090DB05B090DC05DC01CB01881976
:1050E0009909AA09BB0988399A43A105B105F0F2CB
:1050F000D092ED05C092EC0520C0CE0189960E94A9
:1051000089100497D1F480915605811111C00E9435
:1051100003146093D9057093DA058093DB059093AF
:10512000DC051092DD051092ED051092EC0518C01B
:1051300090E09093ED058093EC058091510590915E
:105140005205DC01ED91FC910488F589E02D09956B
:105150004FC1EEEFFFEFF093ED05E093EC0548C192
:1051600088EE92E00E9470178091FA059091FB05FD
:105170000E9426218091F4059091F5050E94262138
:1051800016CF0E94ED20882309F41DC10E9403144C
:105190001B012C018091D9059091DA05A091DB05C6
:1051A000B091DC05A2019101281B390B4A0B5B0B66
:1051B000DA01C90189399A43A105B105A8F48091A2
:1051C000D5059091D605A091D705B091D805A2013B
:1051D0009101281B390B4A0B5B0BDA01C901893994
:1051E0009A43A105B105B8F12091DD0580915105E3
:1051F00090915205222361F0D092ED05C092EC050A
:10520000DC01ED91FC910488F589E02D0995DBC066
:1052100020EC2093530510925405DC01ED91FC9194
:105220000280F381E02D42E050E063E575E00995EE
:105230002092D5053092D6054092D7055092D805D8
:105240002092D9053092DA054092DB055092DC05B8
:1052500081E08093DD058091510590915205DC013C
:10526000ED91FC910084F185E02D0995892B09F4DD
:10527000AAC0CE0101960E9489104C01892B09F425
:10528000A0C02092D9053092DA054092DB055092F9
:10529000DC0580915305807F803309F076C08091D2
:1052A000DE059091DF05892B09F48DC0E980F12C92
:1052B000F701E35BFA4F078110E0102F002780858C
:1052C000080F111DF701EB5AFA4F3F01B7016A5A57
:1052D0007A4FA801CF010E942C33B8016E0D7F1DBB
:1052E000DB01A35BBA4F18961C9218978091530567
:1052F00086708AAFE091DE05F091DF058230C1F55E
:105300001996AC901997B12CBA2CAA241A968C91A4
:10531000A80EB11C4BEF5FEF4E195F09401B510BFC
:10532000480D591D685A7A4FC301099580E480934E
:105330005305FAADF0935405B0925505A092560569
:105340008091510590915205DC01ED91FC91028014
:10535000F381E02D44E050E063E575E0099520928B
:10536000D5053092D6054092D7055092D8052BC06E
:105370004DEF5FEF4E195F09401B510B480D591D52
:105380006A5A7A4FC30109951EC0803CA9F480ED8A
:1053900080935305109254058091510590915205C8
:1053A000DC01ED91FC910280F381E02D42E050E0C0
:1053B00063E575E0099507C0803D29F41092DD058D
:1053C00002C00E94ED2080917004882371F08091CA
:1053D000040190910501019711F461E001C060E0C2
:1053E00088E00E941B13109270040E94E702BBCC5D
:1053F0006CE073E084EA94E00E94BF054091EC0504
:105400005091ED05052E000C660B770B77FF05C05C
:10541000CB01BA010E94E31F05C02AE084EA94E0B0
:105420000E94D40582EF92E00E94701768E873E151
:1054300080E090E00E94C913BACDCF92DF92EF9244
:10544000FF92CF93DF93E4EAF4E01382128288EEB6
:10545000C82E83E0D82EE12CF12CC482D582E682BE
:10546000F7828BE791E09183808385EC90E09587CC
:10547000848784EC90E09787868780EC90E0918B1E
:10548000808B81EC90E0938B828B82EC90E0958B0B
:10549000848B86EC90E0978B868B118E128E138E08
:1054A000148EE6E2F6E0CFE0D2E0D183C083128230
:1054B000138214821582E1E4F5E0D183C083128265
:1054C000138214821582ECE2F6E0D183C08312824B
:1054D000138214821582E2E3F6E0D183C083128244
:1054E000138214821582E8E3F6E0D183C08312822E
:1054F000138214821582EEE3F6E0D183C083128218
:10550000138214821582E4E4F6E0D183C083128210
:10551000138214821582EAE4F6E0D183C0831282FA
:10552000138214821582E7E4F5E0D183C0831282EE
:10553000138214821582E0E5F6E0D183C0831282E3
:10554000138214821582E5E6F6E0D183C0831282CD
:10555000138214821582A0E0B6E087E015968C9342
:10556000159786E116968C931697E4E6F3E0E4919E
:105570001796EC931797E0E5F3E0E4911896EC9317
:10558000189740E85EE360E070E01D964D935D93F0
:105590006D937C93509753968C93539783EF91E040
:1055A00055969C938E9354970A2E1B2E58961C92B8
:1055B0000E92112457974FEF5FEFBA0159964D9312
:1055C0005D936D937C935C9785EE91E05E969C93E2
:1055D0008E935D970A2E1B2E91961C920E9211248B
:1055E000909792964D935D936D937C93959766E219
:1055F00073E08AEF95E00E94AA0563E573E084EF0B
:1056000095E00E94AA0562E873E08EEE95E00E94A4
:10561000AA05E6E5F6E013821282C482D582E6820C
:10562000F78287EB91E09183808384E0848788EE22
:1056300093E096878587ADE4B5E013961C921E92A1
:1056400012978DE891E011969C938E93D093E1058B
:10565000C093E0051092E2051092E3051092E40574
:105660001092E5058FEF9FEF9093ED058093EC0589
:105670001596FC93EE9314971092EB051092EA05A1
:10568000DF91CF91FF90EF90DF90CF9008958EEE55
:1056900095E00E948B0584EF95E00E948B058AEFD0
:1056A00095E00C948B05EF920F931F93CF93DF93AC
:1056B000E80147FD02C034E001C034E1042E000CD3
:1056C000550B57FF03C0519541955109E32E022F09
:1056D000242FAE010E94152CCE01DF91CF911F9196
:1056E0000F91EF9008958F929F92AF92BF92CF92B9
:1056F000DF92EF92FF92CF93DF93EC016881798183
:105700008A819B81611571058105910521F464E20F
:1057100079ED8BE597E02DE133EF41E050E00E9419
:105720006B2F49015A019B01AC01A7EAB1E40E9429
:105730008A2F6B017C01ACEEB4EFA50194010E94AD
:10574000982FDC01CB018C0D9D1DAE1DBF1DB7FF39
:1057500003C00197A109B04888839983AA83BB83BA
:10576000BC01CD019F77DF91CF91FF90EF90DF904B
:10577000CF90BF90AF909F908F9008958F929F92FF
:10578000AF92BF92CF92DF92EF92FF9260910E01A3
:1057900070910F01809110019091110161157105B7
:1057A0008105910521F464E279ED8BE597E02DE127
:1057B00033EF41E050E00E946B2F49015A019B01F9
:1057C000AC01A7EAB1E40E948A2F6B017C01ACEE28
:1057D000B4EFA50194010E94982FDC01CB018C0D40
:1057E0009D1DAE1DBF1DB7FF03C00197A109B048A5
:1057F00080930E0190930F01A0931001B0931101BB
:10580000BC01CD019F77FF90EF90DF90CF90BF90CC
:10581000AF909F908F90089560930E0170930F0149
:1058200080931001909311010895A9E0B0E0EBE19D
:10583000FCE20C94A32F6A01122FB02E2BE3201749
:1058400020F0FF24F394F00E02C02CE3F22E0F2D73
:1058500027E0AE014F5F5F4F0E946F2DBC01498171
:10586000842F8970813031F0E1FC06C0E0FE06C073
:1058700090E205C09DE203C09BE201C090E05E2D76
:10588000507143FF3CC0911102C083E001C084E02D
:10589000811718F4212F281B01C020E051110BC0E3
:1058A000F601822F30E2882319F031938150FBCF2B
:1058B000C20ED11C20E0992329F0D6019C93F60159
:1058C00031966F01C6010396E2FE0AC03EE4D6019E
:1058D0003C9341E411964C93119712963C9306C069
:1058E0003EE6F601308341E641833283FC01322FEC
:1058F00040E2332309F442C041933150FACF42FFD2
:1059000044C0911102C083E001C084E0811718F403
:10591000212F281B01C020E051110BC0F601822F5E
:1059200030E2882319F031938150FBCFC20ED11C95
:1059300020E0992329F0D6019C93F60131966F015E
:10594000C6010396E2FE0BC039E4D6013C933EE467
:1059500011963C93119736E412963C9307C039E6B2
:10596000F60130833EE6318336E63283FC01322F86
:1059700040E2332319F041933150FBCFFC01E20F99
:10598000F11D10828EEF9FEFA6C021E030E0911153
:1059900002C020E030E0161617061CF4FB01319619
:1059A00002C0E1E0F0E02E0F3F1FBB2021F0EB2D05
:1059B000F0E0319602C0E0E0F0E02E0F3F1FE12F53
:1059C000F0E02E173F071CF4121B212F01C020E02E
:1059D0008E2D887159F4F601822F30E2882319F058
:1059E00031938150FBCFC20ED11C20E0992329F0C6
:1059F000D6019C93F60131966F0151110BC0F6014F
:105A0000822F90E3882319F091938150FBCFC20E2F
:105A1000D11C20E00F2D060F9A81342F307144FFE6
:105A200003C0913309F40150101624F4093018F022
:105A300008E001C001E0AB0177FF02C040E050E0A8
:105A4000FB01E41BF50BA1E0B0E0AC0FBD1FEA0FBA
:105A5000FB1F8EE2A82E4B01801A91080B2D10E03F
:105A60001195019511094F3FBFEF5B0721F4D60156
:105A7000AC9211966D01641775072CF0841695068B
:105A800014F4818101C080E3415051093196D6015F
:105A900011967D014017510724F0D6018C936701C0
:105AA000E2CF6417750739F4963320F4953319F46F
:105AB000311101C081E3F6018083F701822F90E26A
:105AC000882319F091938150FBCFF701E20FF11D6C
:105AD000108280E090E02996ECE00C94BF2F2830F3
